{
  "_format": "hh-sol-artifact-1",
  "contractName": "NFTFactory",
  "sourceName": "contracts/nftFactory.sol",
  "abi": [
    {
      "inputs": [],
      "stateMutability": "nonpayable",
      "type": "constructor"
    },
    {
      "anonymous": false,
      "inputs": [
        {
          "indexed": true,
          "internalType": "address",
          "name": "owner",
          "type": "address"
        },
        {
          "indexed": true,
          "internalType": "address",
          "name": "approved",
          "type": "address"
        },
        {
          "indexed": true,
          "internalType": "uint256",
          "name": "tokenId",
          "type": "uint256"
        }
      ],
      "name": "Approval",
      "type": "event"
    },
    {
      "anonymous": false,
      "inputs": [
        {
          "indexed": true,
          "internalType": "address",
          "name": "owner",
          "type": "address"
        },
        {
          "indexed": true,
          "internalType": "address",
          "name": "operator",
          "type": "address"
        },
        {
          "indexed": false,
          "internalType": "bool",
          "name": "approved",
          "type": "bool"
        }
      ],
      "name": "ApprovalForAll",
      "type": "event"
    },
    {
      "anonymous": false,
      "inputs": [
        {
          "indexed": true,
          "internalType": "address",
          "name": "previousOwner",
          "type": "address"
        },
        {
          "indexed": true,
          "internalType": "address",
          "name": "newOwner",
          "type": "address"
        }
      ],
      "name": "OwnershipTransferred",
      "type": "event"
    },
    {
      "anonymous": false,
      "inputs": [
        {
          "indexed": true,
          "internalType": "address",
          "name": "from",
          "type": "address"
        },
        {
          "indexed": true,
          "internalType": "address",
          "name": "to",
          "type": "address"
        },
        {
          "indexed": true,
          "internalType": "uint256",
          "name": "tokenId",
          "type": "uint256"
        }
      ],
      "name": "Transfer",
      "type": "event"
    },
    {
      "inputs": [
        {
          "internalType": "address",
          "name": "to",
          "type": "address"
        },
        {
          "internalType": "uint256",
          "name": "tokenId",
          "type": "uint256"
        }
      ],
      "name": "approve",
      "outputs": [],
      "stateMutability": "nonpayable",
      "type": "function"
    },
    {
      "inputs": [
        {
          "internalType": "address",
          "name": "owner",
          "type": "address"
        }
      ],
      "name": "balanceOf",
      "outputs": [
        {
          "internalType": "uint256",
          "name": "",
          "type": "uint256"
        }
      ],
      "stateMutability": "view",
      "type": "function"
    },
    {
      "inputs": [
        {
          "internalType": "uint256",
          "name": "tokenId",
          "type": "uint256"
        }
      ],
      "name": "burnNFT",
      "outputs": [],
      "stateMutability": "nonpayable",
      "type": "function"
    },
    {
      "inputs": [
        {
          "internalType": "uint256",
          "name": "tokenId",
          "type": "uint256"
        }
      ],
      "name": "getApproved",
      "outputs": [
        {
          "internalType": "address",
          "name": "",
          "type": "address"
        }
      ],
      "stateMutability": "view",
      "type": "function"
    },
    {
      "inputs": [
        {
          "internalType": "uint256",
          "name": "tokenId",
          "type": "uint256"
        }
      ],
      "name": "getTokenCreator",
      "outputs": [
        {
          "internalType": "address",
          "name": "",
          "type": "address"
        }
      ],
      "stateMutability": "view",
      "type": "function"
    },
    {
      "inputs": [
        {
          "internalType": "address",
          "name": "_owner",
          "type": "address"
        },
        {
          "internalType": "address",
          "name": "_operator",
          "type": "address"
        }
      ],
      "name": "isApprovedForAll",
      "outputs": [
        {
          "internalType": "bool",
          "name": "isOperator",
          "type": "bool"
        }
      ],
      "stateMutability": "view",
      "type": "function"
    },
    {
      "inputs": [
        {
          "internalType": "address",
          "name": "recipient",
          "type": "address"
        },
        {
          "internalType": "string",
          "name": "userTokenURI",
          "type": "string"
        }
      ],
      "name": "mintNFT",
      "outputs": [
        {
          "internalType": "uint256",
          "name": "",
          "type": "uint256"
        }
      ],
      "stateMutability": "nonpayable",
      "type": "function"
    },
    {
      "inputs": [],
      "name": "name",
      "outputs": [
        {
          "internalType": "string",
          "name": "",
          "type": "string"
        }
      ],
      "stateMutability": "view",
      "type": "function"
    },
    {
      "inputs": [],
      "name": "owner",
      "outputs": [
        {
          "internalType": "address",
          "name": "",
          "type": "address"
        }
      ],
      "stateMutability": "view",
      "type": "function"
    },
    {
      "inputs": [
        {
          "internalType": "uint256",
          "name": "tokenId",
          "type": "uint256"
        }
      ],
      "name": "ownerOf",
      "outputs": [
        {
          "internalType": "address",
          "name": "",
          "type": "address"
        }
      ],
      "stateMutability": "view",
      "type": "function"
    },
    {
      "inputs": [],
      "name": "renounceOwnership",
      "outputs": [],
      "stateMutability": "nonpayable",
      "type": "function"
    },
    {
      "inputs": [
        {
          "internalType": "address",
          "name": "from",
          "type": "address"
        },
        {
          "internalType": "address",
          "name": "to",
          "type": "address"
        },
        {
          "internalType": "uint256",
          "name": "tokenId",
          "type": "uint256"
        }
      ],
      "name": "safeTransferFrom",
      "outputs": [],
      "stateMutability": "nonpayable",
      "type": "function"
    },
    {
      "inputs": [
        {
          "internalType": "address",
          "name": "from",
          "type": "address"
        },
        {
          "internalType": "address",
          "name": "to",
          "type": "address"
        },
        {
          "internalType": "uint256",
          "name": "tokenId",
          "type": "uint256"
        },
        {
          "internalType": "bytes",
          "name": "_data",
          "type": "bytes"
        }
      ],
      "name": "safeTransferFrom",
      "outputs": [],
      "stateMutability": "nonpayable",
      "type": "function"
    },
    {
      "inputs": [
        {
          "internalType": "address",
          "name": "operator",
          "type": "address"
        },
        {
          "internalType": "bool",
          "name": "approved",
          "type": "bool"
        }
      ],
      "name": "setApprovalForAll",
      "outputs": [],
      "stateMutability": "nonpayable",
      "type": "function"
    },
    {
      "inputs": [
        {
          "internalType": "bytes4",
          "name": "interfaceId",
          "type": "bytes4"
        }
      ],
      "name": "supportsInterface",
      "outputs": [
        {
          "internalType": "bool",
          "name": "",
          "type": "bool"
        }
      ],
      "stateMutability": "view",
      "type": "function"
    },
    {
      "inputs": [],
      "name": "symbol",
      "outputs": [
        {
          "internalType": "string",
          "name": "",
          "type": "string"
        }
      ],
      "stateMutability": "view",
      "type": "function"
    },
    {
      "inputs": [
        {
          "internalType": "uint256",
          "name": "tokenId",
          "type": "uint256"
        }
      ],
      "name": "tokenURI",
      "outputs": [
        {
          "internalType": "string",
          "name": "",
          "type": "string"
        }
      ],
      "stateMutability": "view",
      "type": "function"
    },
    {
      "inputs": [
        {
          "internalType": "address",
          "name": "from",
          "type": "address"
        },
        {
          "internalType": "address",
          "name": "to",
          "type": "address"
        },
        {
          "internalType": "uint256",
          "name": "tokenId",
          "type": "uint256"
        }
      ],
      "name": "transferFrom",
      "outputs": [],
      "stateMutability": "nonpayable",
      "type": "function"
    },
    {
      "inputs": [
        {
          "internalType": "address",
          "name": "newOwner",
          "type": "address"
        }
      ],
      "name": "transferOwnership",
      "outputs": [],
      "stateMutability": "nonpayable",
      "type": "function"
    },
    {
      "stateMutability": "payable",
      "type": "receive"
    }
  ],
  "bytecode": "0x60806040523480156200001157600080fd5b50604051806040016040528060058152602001644e6946546960d81b815250604051806040016040528060058152602001644e4946544960d81b8152508160009080519060200190620000669291906200016c565b5080516200007c9060019060208401906200016c565b50505062000099620000936200009f60201b60201c565b620000bc565b6200024f565b6000620000b66200010e60201b620008ed1760201c565b90505b90565b600780546001600160a01b038381166001600160a01b0319831681179093556040519116919082907f8be0079c531659141344cd1fd0a4f28419497f9722a3daafe3b4186f6b6457e090600090a35050565b6000333014156200016757600080368080601f0160208091040260200160405190810160405280939291908181526020018383808284376000920191909152505050503601516001600160a01b03169150620000b99050565b503390565b8280546200017a9062000212565b90600052602060002090601f0160209004810192826200019e5760008555620001e9565b82601f10620001b957805160ff1916838001178555620001e9565b82800160010185558215620001e9579182015b82811115620001e9578251825591602001919060010190620001cc565b50620001f7929150620001fb565b5090565b5b80821115620001f75760008155600101620001fc565b6002810460018216806200022757607f821691505b602082108114156200024957634e487b7160e01b600052602260045260246000fd5b50919050565b612030806200025f6000396000f3fe6080604052600436106101185760003560e01c8063715018a6116100a0578063b88d4fde11610064578063b88d4fde146102f7578063c87b56dd14610317578063e985e9c514610337578063eacabe1414610357578063f2fde38b146103775761011f565b8063715018a6146102785780638da5cb5b1461028d578063934689a9146102a257806395d89b41146102c2578063a22cb465146102d75761011f565b806323b872dd116100e757806323b872dd146101cb5780632890e0d7146101eb57806342842e0e1461020b5780636352211e1461022b57806370a082311461024b5761011f565b806301ffc9a71461012457806306fdde031461015a578063081812fc1461017c578063095ea7b3146101a95761011f565b3661011f57005b600080fd5b34801561013057600080fd5b5061014461013f366004611829565b610397565b6040516101519190611925565b60405180910390f35b34801561016657600080fd5b5061016f6103df565b6040516101519190611930565b34801561018857600080fd5b5061019c610197366004611861565b610472565b60405161015191906118d4565b3480156101b557600080fd5b506101c96101c4366004611800565b6104be565b005b3480156101d757600080fd5b506101c96101e63660046116b3565b610556565b3480156101f757600080fd5b506101c9610206366004611861565b61058e565b34801561021757600080fd5b506101c96102263660046116b3565b6105cd565b34801561023757600080fd5b5061019c610246366004611861565b6105e8565b34801561025757600080fd5b5061026b610266366004611667565b61061d565b6040516101519190611ec0565b34801561028457600080fd5b506101c9610661565b34801561029957600080fd5b5061019c6106ac565b3480156102ae57600080fd5b5061019c6102bd366004611861565b6106bb565b3480156102ce57600080fd5b5061016f6106c8565b3480156102e357600080fd5b506101c96102f2366004611767565b6106d7565b34801561030357600080fd5b506101c96103123660046116ee565b6107a5565b34801561032357600080fd5b5061016f610332366004611861565b6107e4565b34801561034357600080fd5b50610144610352366004611681565b6107ef565b34801561036357600080fd5b5061026b6103723660046117a1565b610831565b34801561038357600080fd5b506101c9610392366004611667565b61087c565b60006001600160e01b031982166380ac58cd60e01b14806103c857506001600160e01b03198216635b5e139f60e01b145b806103d757506103d782610949565b90505b919050565b6060600080546103ee90611f38565b80601f016020809104026020016040519081016040528092919081815260200182805461041a90611f38565b80156104675780601f1061043c57610100808354040283529160200191610467565b820191906000526020600020905b81548152906001019060200180831161044a57829003601f168201915b505050505090505b90565b600061047d82610962565b6104a25760405162461bcd60e51b815260040161049990611cde565b60405180910390fd5b506000908152600460205260409020546001600160a01b031690565b60006104c9826105e8565b9050806001600160a01b0316836001600160a01b031614156104fd5760405162461bcd60e51b815260040161049990611df7565b806001600160a01b031661050f61097f565b6001600160a01b0316148061052b575061052b8161035261097f565b6105475760405162461bcd60e51b815260040161049990611b1a565b610551838361098e565b505050565b61056761056161097f565b826109fc565b6105835760405162461bcd60e51b815260040161049990611e38565b610551838383610a81565b61059961056161097f565b6105b55760405162461bcd60e51b815260040161049990611a12565b6105be81610bae565b6105c9600982610bb7565b5050565b610551838383604051806020016040528060008152506107a5565b6000818152600260205260408120546001600160a01b0316806103d75760405162461bcd60e51b815260040161049990611bc1565b60006001600160a01b0382166106455760405162461bcd60e51b815260040161049990611b77565b506001600160a01b031660009081526003602052604090205490565b61066961097f565b6001600160a01b031661067a6106ac565b6001600160a01b0316146106a05760405162461bcd60e51b815260040161049990611d2a565b6106aa6000610bc3565b565b6007546001600160a01b031690565b60006103d7600983610c15565b6060600180546103ee90611f38565b6106df61097f565b6001600160a01b0316826001600160a01b031614156107105760405162461bcd60e51b815260040161049990611a97565b806005600061071d61097f565b6001600160a01b03908116825260208083019390935260409182016000908120918716808252919093529120805460ff19169215159290921790915561076161097f565b6001600160a01b03167f17307eab39ab6107e8899845ad3d59bd9653f200f220920489ca2b5937696c31836040516107999190611925565b60405180910390a35050565b6107b66107b061097f565b836109fc565b6107d25760405162461bcd60e51b815260040161049990611e38565b6107de84848484610c21565b50505050565b60606103d782610c54565b60006001600160a01b0382167358807bad0b376efc12f5ad86aac70e78ed67deae141561081e5750600161082b565b6108288383610d6d565b90505b92915050565b600061083d6008610d9b565b60006108496008610da4565b90506108558482610da8565b61085f8184610dc2565b6108748161086b61097f565b60099190610e06565b509392505050565b61088461097f565b6001600160a01b03166108956106ac565b6001600160a01b0316146108bb5760405162461bcd60e51b815260040161049990611d2a565b6001600160a01b0381166108e15760405162461bcd60e51b815260040161049990611995565b6108ea81610bc3565b50565b60003330141561094457600080368080601f0160208091040260200160405190810160405280939291908181526020018383808284376000920191909152505050503601516001600160a01b0316915061046f9050565b503390565b6001600160e01b031981166301ffc9a760e01b14919050565b6000908152600260205260409020546001600160a01b0316151590565b60006109896108ed565b905090565b600081815260046020526040902080546001600160a01b0319166001600160a01b03841690811790915581906109c3826105e8565b6001600160a01b03167f8c5be1e5ebec7d5bd14f71427d1e84f3dd0314c0f7b2291e5b200ac8c7c3b92560405160405180910390a45050565b6000610a0782610962565b610a235760405162461bcd60e51b815260040161049990611ace565b6000610a2e836105e8565b9050806001600160a01b0316846001600160a01b03161480610a695750836001600160a01b0316610a5e84610472565b6001600160a01b0316145b80610a795750610a7981856107ef565b949350505050565b826001600160a01b0316610a94826105e8565b6001600160a01b031614610aba5760405162461bcd60e51b815260040161049990611d5f565b6001600160a01b038216610ae05760405162461bcd60e51b815260040161049990611a53565b610aeb838383610551565b610af660008261098e565b6001600160a01b0383166000908152600360205260408120805460019290610b1f908490611ef5565b90915550506001600160a01b0382166000908152600360205260408120805460019290610b4d908490611ec9565b909155505060008181526002602052604080822080546001600160a01b0319166001600160a01b0386811691821790925591518493918716917fddf252ad1be2c89b69c2b068fc378daa952ba7f163c4a11628f55a4df523b3ef91a4505050565b6108ea81610e1c565b60006108288383610e5c565b600780546001600160a01b038381166001600160a01b0319831681179093556040519116919082907f8be0079c531659141344cd1fd0a4f28419497f9722a3daafe3b4186f6b6457e090600090a35050565b60006108288383610e79565b610c2c848484610a81565b610c3884848484610eb9565b6107de5760405162461bcd60e51b815260040161049990611943565b6060610c5f82610962565b610c7b5760405162461bcd60e51b815260040161049990611c8d565b60008281526006602052604081208054610c9490611f38565b80601f0160208091040260200160405190810160405280929190818152602001828054610cc090611f38565b8015610d0d5780601f10610ce257610100808354040283529160200191610d0d565b820191906000526020600020905b815481529060010190602001808311610cf057829003601f168201915b505050505090506000610d1e610fd4565b9050805160001415610d32575090506103da565b815115610d64578082604051602001610d4c9291906118a5565b604051602081830303815290604052925050506103da565b610a7984610fe6565b6001600160a01b03918216600090815260056020908152604080832093909416825291909152205460ff1690565b80546001019055565b5490565b6105c9828260405180602001604052806000815250611069565b610dcb82610962565b610de75760405162461bcd60e51b815260040161049990611c0a565b600082815260066020908152604090912082516105519284019061150f565b6000610a7984846001600160a01b03851661109c565b610e25816110b9565b60008181526006602052604090208054610e3e90611f38565b1590506108ea5760008181526006602052604081206108ea91611593565b600081815260028301602052604081208190556108288383611160565b600081815260028301602052604081205480151580610e9d5750610e9d848461116c565b6108285760405162461bcd60e51b815260040161049990611e89565b6000610ecd846001600160a01b0316611178565b15610fc957836001600160a01b031663150b7a02610ee961097f565b8786866040518563ffffffff1660e01b8152600401610f0b94939291906118e8565b602060405180830381600087803b158015610f2557600080fd5b505af1925050508015610f55575060408051601f3d908101601f19168201909252610f5291810190611845565b60015b610faf573d808015610f83576040519150601f19603f3d011682016040523d82523d6000602084013e610f88565b606091505b508051610fa75760405162461bcd60e51b815260040161049990611943565b805181602001fd5b6001600160e01b031916630a85bd0160e11b149050610a79565b506001949350505050565b60408051602081019091526000815290565b6060610ff182610962565b61100d5760405162461bcd60e51b815260040161049990611da8565b6000611017610fd4565b905060008151116110375760405180602001604052806000815250611062565b806110418461117e565b6040516020016110529291906118a5565b6040516020818303038152906040525b9392505050565b6110738383611299565b6110806000848484610eb9565b6105515760405162461bcd60e51b815260040161049990611943565b60008281526002840160205260408120829055610a798484611378565b60006110c4826105e8565b90506110d281600084610551565b6110dd60008361098e565b6001600160a01b0381166000908152600360205260408120805460019290611106908490611ef5565b909155505060008281526002602052604080822080546001600160a01b0319169055518391906001600160a01b038416907fddf252ad1be2c89b69c2b068fc378daa952ba7f163c4a11628f55a4df523b3ef908390a45050565b60006108288383611384565b600061082883836114a1565b3b151590565b6060816111a357506040805180820190915260018152600360fc1b60208201526103da565b8160005b81156111cd57806111b781611f73565b91506111c69050600a83611ee1565b91506111a7565b60008167ffffffffffffffff8111156111f657634e487b7160e01b600052604160045260246000fd5b6040519080825280601f01601f191660200182016040528015611220576020820181803683370190505b5090505b8415610a7957611235600183611ef5565b9150611242600a86611f8e565b61124d906030611ec9565b60f81b81838151811061127057634e487b7160e01b600052603260045260246000fd5b60200101906001600160f81b031916908160001a905350611292600a86611ee1565b9450611224565b6001600160a01b0382166112bf5760405162461bcd60e51b815260040161049990611c58565b6112c881610962565b156112e55760405162461bcd60e51b8152600401610499906119db565b6112f160008383610551565b6001600160a01b038216600090815260036020526040812080546001929061131a908490611ec9565b909155505060008181526002602052604080822080546001600160a01b0319166001600160a01b03861690811790915590518392907fddf252ad1be2c89b69c2b068fc378daa952ba7f163c4a11628f55a4df523b3ef908290a45050565b600061082883836114ad565b600081815260018301602052604081205480156114975760006113a8600183611ef5565b85549091506000906113bc90600190611ef5565b905081811461143d5760008660000182815481106113ea57634e487b7160e01b600052603260045260246000fd5b906000526020600020015490508087600001848154811061141b57634e487b7160e01b600052603260045260246000fd5b6000918252602080832090910192909255918252600188019052604090208390555b855486908061145c57634e487b7160e01b600052603160045260246000fd5b60019003818190600052602060002001600090559055856001016000868152602001908152602001600020600090556001935050505061082b565b600091505061082b565b600061082883836114f7565b60006114b983836114f7565b6114ef5750815460018181018455600084815260208082209093018490558454848252828601909352604090209190915561082b565b50600061082b565b60009081526001919091016020526040902054151590565b82805461151b90611f38565b90600052602060002090601f01602090048101928261153d5760008555611583565b82601f1061155657805160ff1916838001178555611583565b82800160010185558215611583579182015b82811115611583578251825591602001919060010190611568565b5061158f9291506115cb565b5090565b50805461159f90611f38565b6000825580601f106115b157506108ea565b601f0160209004906000526020600020908101906108ea91905b5b8082111561158f57600081556001016115cc565b600067ffffffffffffffff808411156115fb576115fb611fce565b604051601f8501601f19168101602001828111828210171561161f5761161f611fce565b60405284815291508183850186101561163757600080fd5b8484602083013760006020868301015250509392505050565b80356001600160a01b03811681146103da57600080fd5b600060208284031215611678578081fd5b61082882611650565b60008060408385031215611693578081fd5b61169c83611650565b91506116aa60208401611650565b90509250929050565b6000806000606084860312156116c7578081fd5b6116d084611650565b92506116de60208501611650565b9150604084013590509250925092565b60008060008060808587031215611703578081fd5b61170c85611650565b935061171a60208601611650565b925060408501359150606085013567ffffffffffffffff81111561173c578182fd5b8501601f8101871361174c578182fd5b61175b878235602084016115e0565b91505092959194509250565b60008060408385031215611779578182fd5b61178283611650565b915060208301358015158114611796578182fd5b809150509250929050565b600080604083850312156117b3578182fd5b6117bc83611650565b9150602083013567ffffffffffffffff8111156117d7578182fd5b8301601f810185136117e7578182fd5b6117f6858235602084016115e0565b9150509250929050565b60008060408385031215611812578182fd5b61181b83611650565b946020939093013593505050565b60006020828403121561183a578081fd5b813561082881611fe4565b600060208284031215611856578081fd5b815161082881611fe4565b600060208284031215611872578081fd5b5035919050565b60008151808452611891816020860160208601611f0c565b601f01601f19169290920160200192915050565b600083516118b7818460208801611f0c565b8351908301906118cb818360208801611f0c565b01949350505050565b6001600160a01b0391909116815260200190565b6001600160a01b038581168252841660208201526040810183905260806060820181905260009061191b90830184611879565b9695505050505050565b901515815260200190565b6000602082526108286020830184611879565b60208082526032908201527f4552433732313a207472616e7366657220746f206e6f6e20455243373231526560408201527131b2b4bb32b91034b6b83632b6b2b73a32b960711b606082015260800190565b60208082526026908201527f4f776e61626c653a206e6577206f776e657220697320746865207a65726f206160408201526564647265737360d01b606082015260800190565b6020808252601c908201527f4552433732313a20746f6b656e20616c7265616479206d696e74656400000000604082015260600190565b60208082526021908201527f4e694654693a2063616e2774206275726e20746f6b656e206e6f74206f776e656040820152601960fa1b606082015260800190565b60208082526024908201527f4552433732313a207472616e7366657220746f20746865207a65726f206164646040820152637265737360e01b606082015260800190565b60208082526019908201527f4552433732313a20617070726f766520746f2063616c6c657200000000000000604082015260600190565b6020808252602c908201527f4552433732313a206f70657261746f7220717565727920666f72206e6f6e657860408201526b34b9ba32b73a103a37b5b2b760a11b606082015260800190565b60208082526038908201527f4552433732313a20617070726f76652063616c6c6572206973206e6f74206f7760408201527f6e6572206e6f7220617070726f76656420666f7220616c6c0000000000000000606082015260800190565b6020808252602a908201527f4552433732313a2062616c616e636520717565727920666f7220746865207a65604082015269726f206164647265737360b01b606082015260800190565b60208082526029908201527f4552433732313a206f776e657220717565727920666f72206e6f6e657869737460408201526832b73a103a37b5b2b760b91b606082015260800190565b6020808252602e908201527f45524337323155524953746f726167653a2055524920736574206f66206e6f6e60408201526d32bc34b9ba32b73a103a37b5b2b760911b606082015260800190565b6020808252818101527f4552433732313a206d696e7420746f20746865207a65726f2061646472657373604082015260600190565b60208082526031908201527f45524337323155524953746f726167653a2055524920717565727920666f72206040820152703737b732bc34b9ba32b73a103a37b5b2b760791b606082015260800190565b6020808252602c908201527f4552433732313a20617070726f76656420717565727920666f72206e6f6e657860408201526b34b9ba32b73a103a37b5b2b760a11b606082015260800190565b6020808252818101527f4f776e61626c653a2063616c6c6572206973206e6f7420746865206f776e6572604082015260600190565b60208082526029908201527f4552433732313a207472616e73666572206f6620746f6b656e2074686174206960408201526839903737ba1037bbb760b91b606082015260800190565b6020808252602f908201527f4552433732314d657461646174613a2055524920717565727920666f72206e6f60408201526e3732bc34b9ba32b73a103a37b5b2b760891b606082015260800190565b60208082526021908201527f4552433732313a20617070726f76616c20746f2063757272656e74206f776e656040820152603960f91b606082015260800190565b60208082526031908201527f4552433732313a207472616e736665722063616c6c6572206973206e6f74206f6040820152701ddb995c881b9bdc88185c1c1c9bdd9959607a1b606082015260800190565b6020808252601e908201527f456e756d657261626c654d61703a206e6f6e6578697374656e74206b65790000604082015260600190565b90815260200190565b60008219821115611edc57611edc611fa2565b500190565b600082611ef057611ef0611fb8565b500490565b600082821015611f0757611f07611fa2565b500390565b60005b83811015611f27578181015183820152602001611f0f565b838111156107de5750506000910152565b600281046001821680611f4c57607f821691505b60208210811415611f6d57634e487b7160e01b600052602260045260246000fd5b50919050565b6000600019821415611f8757611f87611fa2565b5060010190565b600082611f9d57611f9d611fb8565b500690565b634e487b7160e01b600052601160045260246000fd5b634e487b7160e01b600052601260045260246000fd5b634e487b7160e01b600052604160045260246000fd5b6001600160e01b0319811681146108ea57600080fdfea264697066735822122021341d8e013f6e0cc1ae325a23570f2b84da770e23a24188f35edbb487a325a064736f6c63430008000033",
  "linkReferences": {},
  "deployedLinkReferences": {}
}