{
  "_format": "hh-sol-artifact-1",
  "contractName": "NFTFactory",
  "sourceName": "contracts/nft.sol",
  "abi": [
    {
      "inputs": [],
      "stateMutability": "nonpayable",
      "type": "constructor"
    },
    {
      "anonymous": false,
      "inputs": [
        {
          "indexed": true,
          "internalType": "address",
          "name": "owner",
          "type": "address"
        },
        {
          "indexed": true,
          "internalType": "address",
          "name": "approved",
          "type": "address"
        },
        {
          "indexed": true,
          "internalType": "uint256",
          "name": "tokenId",
          "type": "uint256"
        }
      ],
      "name": "Approval",
      "type": "event"
    },
    {
      "anonymous": false,
      "inputs": [
        {
          "indexed": true,
          "internalType": "address",
          "name": "owner",
          "type": "address"
        },
        {
          "indexed": true,
          "internalType": "address",
          "name": "operator",
          "type": "address"
        },
        {
          "indexed": false,
          "internalType": "bool",
          "name": "approved",
          "type": "bool"
        }
      ],
      "name": "ApprovalForAll",
      "type": "event"
    },
    {
      "anonymous": false,
      "inputs": [
        {
          "indexed": true,
          "internalType": "address",
          "name": "previousOwner",
          "type": "address"
        },
        {
          "indexed": true,
          "internalType": "address",
          "name": "newOwner",
          "type": "address"
        }
      ],
      "name": "OwnershipTransferred",
      "type": "event"
    },
    {
      "anonymous": false,
      "inputs": [
        {
          "indexed": true,
          "internalType": "address",
          "name": "from",
          "type": "address"
        },
        {
          "indexed": true,
          "internalType": "address",
          "name": "to",
          "type": "address"
        },
        {
          "indexed": true,
          "internalType": "uint256",
          "name": "tokenId",
          "type": "uint256"
        }
      ],
      "name": "Transfer",
      "type": "event"
    },
    {
      "inputs": [
        {
          "internalType": "address",
          "name": "to",
          "type": "address"
        },
        {
          "internalType": "uint256",
          "name": "tokenId",
          "type": "uint256"
        }
      ],
      "name": "approve",
      "outputs": [],
      "stateMutability": "nonpayable",
      "type": "function"
    },
    {
      "inputs": [
        {
          "internalType": "address",
          "name": "owner",
          "type": "address"
        }
      ],
      "name": "balanceOf",
      "outputs": [
        {
          "internalType": "uint256",
          "name": "",
          "type": "uint256"
        }
      ],
      "stateMutability": "view",
      "type": "function"
    },
    {
      "inputs": [
        {
          "internalType": "uint256",
          "name": "tokenId",
          "type": "uint256"
        }
      ],
      "name": "getApproved",
      "outputs": [
        {
          "internalType": "address",
          "name": "",
          "type": "address"
        }
      ],
      "stateMutability": "view",
      "type": "function"
    },
    {
      "inputs": [
        {
          "internalType": "address",
          "name": "_owner",
          "type": "address"
        },
        {
          "internalType": "address",
          "name": "_operator",
          "type": "address"
        }
      ],
      "name": "isApprovedForAll",
      "outputs": [
        {
          "internalType": "bool",
          "name": "isOperator",
          "type": "bool"
        }
      ],
      "stateMutability": "view",
      "type": "function"
    },
    {
      "inputs": [
        {
          "internalType": "address",
          "name": "recipient",
          "type": "address"
        },
        {
          "internalType": "string",
          "name": "tokenURI",
          "type": "string"
        }
      ],
      "name": "mintNFT",
      "outputs": [
        {
          "internalType": "uint256",
          "name": "",
          "type": "uint256"
        }
      ],
      "stateMutability": "nonpayable",
      "type": "function"
    },
    {
      "inputs": [],
      "name": "name",
      "outputs": [
        {
          "internalType": "string",
          "name": "",
          "type": "string"
        }
      ],
      "stateMutability": "view",
      "type": "function"
    },
    {
      "inputs": [],
      "name": "owner",
      "outputs": [
        {
          "internalType": "address",
          "name": "",
          "type": "address"
        }
      ],
      "stateMutability": "view",
      "type": "function"
    },
    {
      "inputs": [
        {
          "internalType": "uint256",
          "name": "tokenId",
          "type": "uint256"
        }
      ],
      "name": "ownerOf",
      "outputs": [
        {
          "internalType": "address",
          "name": "",
          "type": "address"
        }
      ],
      "stateMutability": "view",
      "type": "function"
    },
    {
      "inputs": [],
      "name": "renounceOwnership",
      "outputs": [],
      "stateMutability": "nonpayable",
      "type": "function"
    },
    {
      "inputs": [
        {
          "internalType": "address",
          "name": "from",
          "type": "address"
        },
        {
          "internalType": "address",
          "name": "to",
          "type": "address"
        },
        {
          "internalType": "uint256",
          "name": "tokenId",
          "type": "uint256"
        }
      ],
      "name": "safeTransferFrom",
      "outputs": [],
      "stateMutability": "nonpayable",
      "type": "function"
    },
    {
      "inputs": [
        {
          "internalType": "address",
          "name": "from",
          "type": "address"
        },
        {
          "internalType": "address",
          "name": "to",
          "type": "address"
        },
        {
          "internalType": "uint256",
          "name": "tokenId",
          "type": "uint256"
        },
        {
          "internalType": "bytes",
          "name": "_data",
          "type": "bytes"
        }
      ],
      "name": "safeTransferFrom",
      "outputs": [],
      "stateMutability": "nonpayable",
      "type": "function"
    },
    {
      "inputs": [
        {
          "internalType": "address",
          "name": "operator",
          "type": "address"
        },
        {
          "internalType": "bool",
          "name": "approved",
          "type": "bool"
        }
      ],
      "name": "setApprovalForAll",
      "outputs": [],
      "stateMutability": "nonpayable",
      "type": "function"
    },
    {
      "inputs": [
        {
          "internalType": "bytes4",
          "name": "interfaceId",
          "type": "bytes4"
        }
      ],
      "name": "supportsInterface",
      "outputs": [
        {
          "internalType": "bool",
          "name": "",
          "type": "bool"
        }
      ],
      "stateMutability": "view",
      "type": "function"
    },
    {
      "inputs": [],
      "name": "symbol",
      "outputs": [
        {
          "internalType": "string",
          "name": "",
          "type": "string"
        }
      ],
      "stateMutability": "view",
      "type": "function"
    },
    {
      "inputs": [
        {
          "internalType": "uint256",
          "name": "tokenId",
          "type": "uint256"
        }
      ],
      "name": "tokenURI",
      "outputs": [
        {
          "internalType": "string",
          "name": "",
          "type": "string"
        }
      ],
      "stateMutability": "view",
      "type": "function"
    },
    {
      "inputs": [
        {
          "internalType": "address",
          "name": "from",
          "type": "address"
        },
        {
          "internalType": "address",
          "name": "to",
          "type": "address"
        },
        {
          "internalType": "uint256",
          "name": "tokenId",
          "type": "uint256"
        }
      ],
      "name": "transferFrom",
      "outputs": [],
      "stateMutability": "nonpayable",
      "type": "function"
    },
    {
      "inputs": [
        {
          "internalType": "address",
          "name": "from",
          "type": "address"
        },
        {
          "internalType": "address",
          "name": "to",
          "type": "address"
        },
        {
          "internalType": "uint256",
          "name": "tokenId",
          "type": "uint256"
        }
      ],
      "name": "transferNFT",
      "outputs": [],
      "stateMutability": "nonpayable",
      "type": "function"
    },
    {
      "inputs": [
        {
          "internalType": "address",
          "name": "newOwner",
          "type": "address"
        }
      ],
      "name": "transferOwnership",
      "outputs": [],
      "stateMutability": "nonpayable",
      "type": "function"
    }
  ],
  "bytecode": "0x60806040523480156200001157600080fd5b50604051806040016040528060058152602001644e6946546960d81b815250604051806040016040528060058152602001644e4946544960d81b815250816000908051906020019062000066929190620000f5565b5080516200007c906001906020840190620000f5565b50505062000099620000936200009f60201b60201c565b620000a3565b620001d8565b3390565b600780546001600160a01b038381166001600160a01b0319831681179093556040519116919082907f8be0079c531659141344cd1fd0a4f28419497f9722a3daafe3b4186f6b6457e090600090a35050565b82805462000103906200019b565b90600052602060002090601f01602090048101928262000127576000855562000172565b82601f106200014257805160ff191683800117855562000172565b8280016001018555821562000172579182015b828111156200017257825182559160200191906001019062000155565b506200018092915062000184565b5090565b5b8082111562000180576000815560010162000185565b600281046001821680620001b057607f821691505b60208210811415620001d257634e487b7160e01b600052602260045260246000fd5b50919050565b611a9880620001e86000396000f3fe608060405234801561001057600080fd5b50600436106101165760003560e01c8063715018a6116100a2578063b88d4fde11610071578063b88d4fde14610225578063c87b56dd14610238578063e985e9c51461024b578063eacabe141461025e578063f2fde38b1461027157610116565b8063715018a6146101fa5780638da5cb5b1461020257806395d89b411461020a578063a22cb4651461021257610116565b806323b872dd116100e957806323b872dd1461018e57806342842e0e146101a15780636352211e146101b457806369e9cae1146101c757806370a08231146101da57610116565b806301ffc9a71461011b57806306fdde0314610144578063081812fc14610159578063095ea7b314610179575b600080fd5b61012e610129366004611309565b610284565b60405161013b9190611405565b60405180910390f35b61014c6102cc565b60405161013b9190611410565b61016c610167366004611341565b61035e565b60405161013b91906113b4565b61018c6101873660046112e0565b6103aa565b005b61018c61019c366004611193565b610442565b61018c6101af366004611193565b61047a565b61016c6101c2366004611341565b610495565b61018c6101d5366004611193565b6104ca565b6101ed6101e8366004611147565b6104d5565b60405161013b9190611928565b61018c610519565b61016c610564565b61014c610573565b61018c610220366004611247565b610582565b61018c6102333660046111ce565b610650565b61014c610246366004611341565b61068f565b61012e610259366004611161565b6107b0565b6101ed61026c366004611281565b6107f2565b61018c61027f366004611147565b61085f565b60006001600160e01b031982166380ac58cd60e01b14806102b557506001600160e01b03198216635b5e139f60e01b145b806102c457506102c4826108d0565b90505b919050565b6060600080546102db906119a0565b80601f0160208091040260200160405190810160405280929190818152602001828054610307906119a0565b80156103545780601f1061032957610100808354040283529160200191610354565b820191906000526020600020905b81548152906001019060200180831161033757829003601f168201915b5050505050905090565b6000610369826108e9565b61038e5760405162461bcd60e51b81526004016103859061177d565b60405180910390fd5b506000908152600460205260409020546001600160a01b031690565b60006103b582610495565b9050806001600160a01b0316836001600160a01b031614156103e95760405162461bcd60e51b815260040161038590611896565b806001600160a01b03166103fb610906565b6001600160a01b03161480610417575061041781610259610906565b6104335760405162461bcd60e51b8152600401610385906115b9565b61043d838361090a565b505050565b61045361044d610906565b82610978565b61046f5760405162461bcd60e51b8152600401610385906118d7565b61043d8383836109f5565b61043d83838360405180602001604052806000815250610650565b6000818152600260205260408120546001600160a01b0316806102c45760405162461bcd60e51b815260040161038590611660565b61043d83838361047a565b60006001600160a01b0382166104fd5760405162461bcd60e51b815260040161038590611616565b506001600160a01b031660009081526003602052604090205490565b610521610906565b6001600160a01b0316610532610564565b6001600160a01b0316146105585760405162461bcd60e51b8152600401610385906117c9565b6105626000610b22565b565b6007546001600160a01b031690565b6060600180546102db906119a0565b61058a610906565b6001600160a01b0316826001600160a01b031614156105bb5760405162461bcd60e51b815260040161038590611536565b80600560006105c8610906565b6001600160a01b03908116825260208083019390935260409182016000908120918716808252919093529120805460ff19169215159290921790915561060c610906565b6001600160a01b03167f17307eab39ab6107e8899845ad3d59bd9653f200f220920489ca2b5937696c31836040516106449190611405565b60405180910390a35050565b61066161065b610906565b83610978565b61067d5760405162461bcd60e51b8152600401610385906118d7565b61068984848484610b74565b50505050565b606061069a826108e9565b6106b65760405162461bcd60e51b81526004016103859061172c565b600082815260066020526040812080546106cf906119a0565b80601f01602080910402602001604051908101604052809291908181526020018280546106fb906119a0565b80156107485780601f1061071d57610100808354040283529160200191610748565b820191906000526020600020905b81548152906001019060200180831161072b57829003601f168201915b505050505090506000610759610ba7565b905080516000141561076d575090506102c7565b81511561079f578082604051602001610787929190611385565b604051602081830303815290604052925050506102c7565b6107a884610bb9565b949350505050565b60006001600160a01b0382167358807bad0b376efc12f5ad86aac70e78ed67deae14156107df575060016107ec565b6107e98383610c3c565b90505b92915050565b60006107fc610906565b6001600160a01b031661080d610564565b6001600160a01b0316146108335760405162461bcd60e51b8152600401610385906117c9565b61083d6008610c6a565b60006108496008610c73565b90506108558482610c77565b6107e98184610c95565b610867610906565b6001600160a01b0316610878610564565b6001600160a01b03161461089e5760405162461bcd60e51b8152600401610385906117c9565b6001600160a01b0381166108c45760405162461bcd60e51b815260040161038590611475565b6108cd81610b22565b50565b6001600160e01b031981166301ffc9a760e01b14919050565b6000908152600260205260409020546001600160a01b0316151590565b3390565b600081815260046020526040902080546001600160a01b0319166001600160a01b038416908117909155819061093f82610495565b6001600160a01b03167f8c5be1e5ebec7d5bd14f71427d1e84f3dd0314c0f7b2291e5b200ac8c7c3b92560405160405180910390a45050565b6000610983826108e9565b61099f5760405162461bcd60e51b81526004016103859061156d565b60006109aa83610495565b9050806001600160a01b0316846001600160a01b031614806109e55750836001600160a01b03166109da8461035e565b6001600160a01b0316145b806107a857506107a881856107b0565b826001600160a01b0316610a0882610495565b6001600160a01b031614610a2e5760405162461bcd60e51b8152600401610385906117fe565b6001600160a01b038216610a545760405162461bcd60e51b8152600401610385906114f2565b610a5f83838361043d565b610a6a60008261090a565b6001600160a01b0383166000908152600360205260408120805460019290610a9390849061195d565b90915550506001600160a01b0382166000908152600360205260408120805460019290610ac1908490611931565b909155505060008181526002602052604080822080546001600160a01b0319166001600160a01b0386811691821790925591518493918716917fddf252ad1be2c89b69c2b068fc378daa952ba7f163c4a11628f55a4df523b3ef91a4505050565b600780546001600160a01b038381166001600160a01b0319831681179093556040519116919082907f8be0079c531659141344cd1fd0a4f28419497f9722a3daafe3b4186f6b6457e090600090a35050565b610b7f8484846109f5565b610b8b84848484610cd9565b6106895760405162461bcd60e51b815260040161038590611423565b60408051602081019091526000815290565b6060610bc4826108e9565b610be05760405162461bcd60e51b815260040161038590611847565b6000610bea610ba7565b90506000815111610c0a5760405180602001604052806000815250610c35565b80610c1484610df4565b604051602001610c25929190611385565b6040516020818303038152906040525b9392505050565b6001600160a01b03918216600090815260056020908152604080832093909416825291909152205460ff1690565b80546001019055565b5490565b610c91828260405180602001604052806000815250610f0f565b5050565b610c9e826108e9565b610cba5760405162461bcd60e51b8152600401610385906116a9565b6000828152600660209081526040909120825161043d92840190611027565b6000610ced846001600160a01b0316610f42565b15610de957836001600160a01b031663150b7a02610d09610906565b8786866040518563ffffffff1660e01b8152600401610d2b94939291906113c8565b602060405180830381600087803b158015610d4557600080fd5b505af1925050508015610d75575060408051601f3d908101601f19168201909252610d7291810190611325565b60015b610dcf573d808015610da3576040519150601f19603f3d011682016040523d82523d6000602084013e610da8565b606091505b508051610dc75760405162461bcd60e51b815260040161038590611423565b805181602001fd5b6001600160e01b031916630a85bd0160e11b1490506107a8565b506001949350505050565b606081610e1957506040805180820190915260018152600360fc1b60208201526102c7565b8160005b8115610e435780610e2d816119db565b9150610e3c9050600a83611949565b9150610e1d565b60008167ffffffffffffffff811115610e6c57634e487b7160e01b600052604160045260246000fd5b6040519080825280601f01601f191660200182016040528015610e96576020820181803683370190505b5090505b84156107a857610eab60018361195d565b9150610eb8600a866119f6565b610ec3906030611931565b60f81b818381518110610ee657634e487b7160e01b600052603260045260246000fd5b60200101906001600160f81b031916908160001a905350610f08600a86611949565b9450610e9a565b610f198383610f48565b610f266000848484610cd9565b61043d5760405162461bcd60e51b815260040161038590611423565b3b151590565b6001600160a01b038216610f6e5760405162461bcd60e51b8152600401610385906116f7565b610f77816108e9565b15610f945760405162461bcd60e51b8152600401610385906114bb565b610fa06000838361043d565b6001600160a01b0382166000908152600360205260408120805460019290610fc9908490611931565b909155505060008181526002602052604080822080546001600160a01b0319166001600160a01b03861690811790915590518392907fddf252ad1be2c89b69c2b068fc378daa952ba7f163c4a11628f55a4df523b3ef908290a45050565b828054611033906119a0565b90600052602060002090601f016020900481019282611055576000855561109b565b82601f1061106e57805160ff191683800117855561109b565b8280016001018555821561109b579182015b8281111561109b578251825591602001919060010190611080565b506110a79291506110ab565b5090565b5b808211156110a757600081556001016110ac565b600067ffffffffffffffff808411156110db576110db611a36565b604051601f8501601f1916810160200182811182821017156110ff576110ff611a36565b60405284815291508183850186101561111757600080fd5b8484602083013760006020868301015250509392505050565b80356001600160a01b03811681146102c757600080fd5b600060208284031215611158578081fd5b6107e982611130565b60008060408385031215611173578081fd5b61117c83611130565b915061118a60208401611130565b90509250929050565b6000806000606084860312156111a7578081fd5b6111b084611130565b92506111be60208501611130565b9150604084013590509250925092565b600080600080608085870312156111e3578081fd5b6111ec85611130565b93506111fa60208601611130565b925060408501359150606085013567ffffffffffffffff81111561121c578182fd5b8501601f8101871361122c578182fd5b61123b878235602084016110c0565b91505092959194509250565b60008060408385031215611259578182fd5b61126283611130565b915060208301358015158114611276578182fd5b809150509250929050565b60008060408385031215611293578182fd5b61129c83611130565b9150602083013567ffffffffffffffff8111156112b7578182fd5b8301601f810185136112c7578182fd5b6112d6858235602084016110c0565b9150509250929050565b600080604083850312156112f2578182fd5b6112fb83611130565b946020939093013593505050565b60006020828403121561131a578081fd5b81356107e981611a4c565b600060208284031215611336578081fd5b81516107e981611a4c565b600060208284031215611352578081fd5b5035919050565b60008151808452611371816020860160208601611974565b601f01601f19169290920160200192915050565b60008351611397818460208801611974565b8351908301906113ab818360208801611974565b01949350505050565b6001600160a01b0391909116815260200190565b6001600160a01b03858116825284166020820152604081018390526080606082018190526000906113fb90830184611359565b9695505050505050565b901515815260200190565b6000602082526107e96020830184611359565b60208082526032908201527f4552433732313a207472616e7366657220746f206e6f6e20455243373231526560408201527131b2b4bb32b91034b6b83632b6b2b73a32b960711b606082015260800190565b60208082526026908201527f4f776e61626c653a206e6577206f776e657220697320746865207a65726f206160408201526564647265737360d01b606082015260800190565b6020808252601c908201527f4552433732313a20746f6b656e20616c7265616479206d696e74656400000000604082015260600190565b60208082526024908201527f4552433732313a207472616e7366657220746f20746865207a65726f206164646040820152637265737360e01b606082015260800190565b60208082526019908201527f4552433732313a20617070726f766520746f2063616c6c657200000000000000604082015260600190565b6020808252602c908201527f4552433732313a206f70657261746f7220717565727920666f72206e6f6e657860408201526b34b9ba32b73a103a37b5b2b760a11b606082015260800190565b60208082526038908201527f4552433732313a20617070726f76652063616c6c6572206973206e6f74206f7760408201527f6e6572206e6f7220617070726f76656420666f7220616c6c0000000000000000606082015260800190565b6020808252602a908201527f4552433732313a2062616c616e636520717565727920666f7220746865207a65604082015269726f206164647265737360b01b606082015260800190565b60208082526029908201527f4552433732313a206f776e657220717565727920666f72206e6f6e657869737460408201526832b73a103a37b5b2b760b91b606082015260800190565b6020808252602e908201527f45524337323155524953746f726167653a2055524920736574206f66206e6f6e60408201526d32bc34b9ba32b73a103a37b5b2b760911b606082015260800190565b6020808252818101527f4552433732313a206d696e7420746f20746865207a65726f2061646472657373604082015260600190565b60208082526031908201527f45524337323155524953746f726167653a2055524920717565727920666f72206040820152703737b732bc34b9ba32b73a103a37b5b2b760791b606082015260800190565b6020808252602c908201527f4552433732313a20617070726f76656420717565727920666f72206e6f6e657860408201526b34b9ba32b73a103a37b5b2b760a11b606082015260800190565b6020808252818101527f4f776e61626c653a2063616c6c6572206973206e6f7420746865206f776e6572604082015260600190565b60208082526029908201527f4552433732313a207472616e73666572206f6620746f6b656e2074686174206960408201526839903737ba1037bbb760b91b606082015260800190565b6020808252602f908201527f4552433732314d657461646174613a2055524920717565727920666f72206e6f60408201526e3732bc34b9ba32b73a103a37b5b2b760891b606082015260800190565b60208082526021908201527f4552433732313a20617070726f76616c20746f2063757272656e74206f776e656040820152603960f91b606082015260800190565b60208082526031908201527f4552433732313a207472616e736665722063616c6c6572206973206e6f74206f6040820152701ddb995c881b9bdc88185c1c1c9bdd9959607a1b606082015260800190565b90815260200190565b6000821982111561194457611944611a0a565b500190565b60008261195857611958611a20565b500490565b60008282101561196f5761196f611a0a565b500390565b60005b8381101561198f578181015183820152602001611977565b838111156106895750506000910152565b6002810460018216806119b457607f821691505b602082108114156119d557634e487b7160e01b600052602260045260246000fd5b50919050565b60006000198214156119ef576119ef611a0a565b5060010190565b600082611a0557611a05611a20565b500690565b634e487b7160e01b600052601160045260246000fd5b634e487b7160e01b600052601260045260246000fd5b634e487b7160e01b600052604160045260246000fd5b6001600160e01b0319811681146108cd57600080fdfea2646970667358221220e46ac24c3a9c4c9ffe9f2d360d28c937a9fbf266a29cf505bcc362e2c778c4bc64736f6c63430008000033",
  "linkReferences": {},
  "deployedLinkReferences": {}
}